8=FIXT.1.1|9=89|35=A|34=1|49=COUNTERPARTY|52=20120202-07:44:20.508|56=FIXPUSHER|98=0|108=60|141=Y|1137=9|10=045|
8=FIXT.1.1|9=89|35=A|34=1|49=FIXPUSHER|52=20120202-07:44:20.520|56=COUNTERPARTY|98=0|108=60|141=Y|1137=9|10=039|
8=FIXT.1.1|9=64|35=0|34=2|49=FIXPUSHER|52=20120202-07:45:20.647|56=COUNTERPARTY|10=143|
8=FIXT.1.1|9=64|35=0|34=2|49=COUNTERPARTY|52=20120202-07:45:20.650|56=FIXPUSHER|10=137|
8=FIXT.1.1|9=218|35=D|34=3|49=COUNTERPARTY|52=20120202-07:46:06.321|56=FIXPUSHER|11=000000001|22=4|38=1000000|40=1|44=117.08|48=DE0001135341|54=1|55=DBR 4 01/04/18|60=20120202-08:44:34.019|423=1|453=1|448=Alexander Pinnow|447=D|452=12|10=095|
8=FIXT.1.1|9=64|35=0|34=3|49=FIXPUSHER|52=20120202-07:46:20.646|56=COUNTERPARTY|10=144|
8=FIXT.1.1|9=281|35=8|34=4|49=FIXPUSHER|52=20120202-07:46:49.609|56=COUNTERPARTY|6=117.08|11=000000001|14=1000000|17=000000002|22=4|37=000000002|38=1000000|39=2|40=1|44=117.08|48=DE0001135341|54=1|55=DBR 4 01/04/18|60=20120202-08:44:34.019|150=F|151=0|423=1|453=1|448=Alexander Pinnow|447=D|452=12|10=168|
8=FIXT.1.1|9=64|35=5|34=5|49=FIXPUSHER|52=20120202-07:46:54.647|56=COUNTERPARTY|10=159|
8=FIXT.1.1|9=64|35=5|34=4|49=COUNTERPARTY|52=20120202-07:46:54.650|56=FIXPUSHER|10=152|
