8=FIX.4.4|9=82|35=A|34=1|49=COUNTERPARTY|52=20120202-07:36:26.086|56=FIXPUSHER|98=0|108=60|141=Y|10=157|8=FIX.4.4|9=64|35=0|34=2|49=COUNTERPARTY|52=20120202-07:37:26.873|56=FIXPUSHER|10=073|8=FIX.4.4|9=218|35=D|34=3|49=COUNTERPARTY|52=20120202-07:37:50.754|56=FIXPUSHER|11=000000001|22=4|38=1000000|40=1|44=117.08|48=DE0001135341|54=1|55=DBR 4 01/04/18|60=20120202-08:37:03.439|423=1|453=1|448=Alexander Pinnow|447=D|452=12|10=030|8=FIX.4.4|9=64|35=5|34=4|49=COUNTERPARTY|52=20120202-07:38:43.868|56=FIXPUSHER|10=084|